:020000040800F2
:1000000010040020D50000080302000801020008C7
:1000100000000000000000000000000000000000E0
:1000200000000000000000000000000021030008A4
:10003000000000000000000005020008090400089C
:10004000E7000008E7000008E7000008E7000008F4
:10005000E7000008E7000008E7000008E7000008E4
:10006000E7000008E7000008E7000008E7000008D4
:10007000E7000008E7000008E7000008E7000008C4
:10008000E7000008E700000800000000E7000008A3
:10009000E7000008E7000008E7000008E7000008A4
:1000A000E7000008E7000008E7000008E700000894
:1000B000E700000800000000E70000080000000062
:1000C0000348854600F02AF8004800475705000815
:1000D000100400200448804704480047FEE7FEE77C
:1000E000FEE7FEE7FEE7FEE70D040008C10000089A
:1000F00030B50B46014600202022012409E00D46C0
:10010000D5409D4205D31D469540491B2546954047
:1001100040191546521E002DF1DC30BD064C01255C
:10012000064E05E02046E36807C82B439847103485
:10013000B442F7D3FFF7C8FF3C0600085C0600088E
:10014000054A00210020401C80B29042FBD3491C8C
:10015000C9B27829F6D3704756F40000034900204D
:10016000401C80B28842FBD37047000056F4000068
:10017000F0B50022012423460D6893401D409D42A6
:100180002AD10D79012D01D0022D12D18768550099
:100190000326AE40B74387604E79AE4085682E4354
:1001A000866085889D43858085888B7993401D4333
:1001B0008580066855000323AB409E4306600E7998
:1001C0000768AE403E430660C6689E43C660CB7972
:1001D000AB40C5682B43C360521C102ACBD3F0BD83
:1001E0004B07DB0E9A40C90810B589000818016A50
:1001F0000F249C40A1430162016A1143016210BDBA
:10020000FEE7704770470000044A0029516901D099
:10021000014300E08143516170470000001002403B
:10022000044A0029D16901D0014300E08143D16132
:100230007047000000100240F8B5334D044668686E
:100240000C21324E084003D0042801D0082801D0E8
:10025000266012E0696868680122890212040F0FA3
:100260001040BF1C00281CD0E86A0107090F491C78
:100270003046FFF73DFF784320606868244B000656
:10028000000F1A5C20680146D14061606A6852051F
:10029000520F9A5CD140A1602A6BD20505D41D4A49
:1002A00009E01D4847432760E7E76A68520401D424
:1002B0004A0800E08A08E2602A6B5306174A03D412
:1002C000164B1233236100E022612B6BDB0601D455
:1002D000666100E060612B6B9B070FD0296B89077B
:1002E000890F01290CD0286B8007800F022809D0C4
:1002F000286BC043800700D1A661F8BDA161F8BD9D
:10030000A061F8BDA261F8BD0010024000127A00A1
:1003100000000020809FD50000093D000080000003
:1003200070470000F0B5012106464C0489B0204614
:10033000FFF76AFF01212046FFF772FF0927FF063A
:10034000012202213846FFF74BFF012203213846E4
:10035000FFF746FF0C250221684606950177002429
:1003600084770121C1770321417706A93846FFF739
:10037000FFFE00960194029403940594054C69468F
:100380000495204600F07CF80121204600F06EF82C
:1003900009B0F0BD0044004010B50146014800F02E
:1003A000C7F810BD0044004008B500200090144973
:1003B000112008601348416841604168416041680C
:1003C0003F2212049143416041680522D204114347
:1003D0004160016801221206114301600168890130
:1003E000FCD54168890889004160416802221143B7
:1003F000416041680907890F0229FAD108BD000050
:1004000000200240001002407047000010B5144860
:1004100001680122114301604168124A11404160A4
:100420000168114A11400160016801229204914360
:10043000016041683F22120491434160C16A090989
:100440000901C162016BFF22543291430163416B88
:1004500049084900416300218160FFF7A5FF10BDF5
:10046000001002400CB8FFF8FFFFF6FE00290168FB
:1004700002D00122114301E04908490001607047A0
:1004800070B50446006888B00D4640084000206002
:100490006168032000038143A86808436060216805
:1004A0002148EA680140686810432A690A431043FA
:1004B0002060A06803210902884369690143A160A3
:1004C0006846FFF7B9FE1948844201D1069800E05A
:1004D000029821680904296801D5490000E08900D3
:1004E00019225043FFF704FE05466421FFF700FE82
:1004F00006013009642148432168281A090407D5F8
:10050000C00032306421FFF7F3FD4007400F06E0E2
:10051000000132306421FFF7EBFD0007000F30438C
:10052000A08108B070BD0000F3E9FFFF0038014072
:10053000C905C90D0185704702E008C8121F08C12E
:10054000002AFAD170477047002001E001C1121F54
:10055000002AFBD17047E1204002FFF7E3FE412073
:10056000FFF71AFFFFF7FAFD5420FFF715FFFFF71B
:10057000F5FDFFF7E5FD4120FFF70EFFFFF7EEFD6C
:100580005420FFF709FFFFF7E9FD2B20FFF704FFD9
:10059000FFF7E4FD4220FFF7FFFEFFF7DFFD4120FC
:1005A000FFF7FAFEFFF7DAFD5520FFF7F5FEFFF73C
:1005B000D5FD4420FFF7F0FEFFF7D0FD3420FFF714
:1005C000EBFEFFF7BDFD4B20C001FFF7ABFEFFF7D1
:1005D000C5FD4120FFF7E0FEFFF7C0FD5420FFF707
:1005E000DBFEFFF7BBFD2B20FFF7D6FEFFF7B6FDC6
:1005F0005620FFF7D1FEFFF7B1FD4520FFF7CCFEF7
:10060000FFF7ACFD5220FFF7C7FEFFF7A7FD532011
:10061000FFF7C2FEFFF7A2FD4920FFF7BDFEFFF77F
:100620009DFD4F20FFF7B8FEFFF798FD4E20FFF726
:10063000B3FEFFF793FDFFF783FDCAE75C060008F2
:100640000000002010000000380500086C060008BB
:100650001000002000040000480500080000000011
:0C0660000102030401020304060708095C
:04000005080000C12E
:00000001FF
