:020000040800F2
:1000000020040020D50000080302000801020008B7
:1000100000000000000000000000000000000000E0
:100020000000000000000000000000008104000843
:10003000000000000000000005020008690500083B
:10004000E7000008E7000008E7000008E7000008F4
:10005000E7000008E7000008E7000008E7000008E4
:10006000E7000008E7000008E7000008E7000008D4
:10007000E7000008E7000008E7000008E7000008C4
:10008000E7000008E700000800000000E7000008A3
:10009000E7000008E7000008E7000008E7000008A4
:1000A000E7000008E7000008E7000008E700000894
:1000B000E700000800000000E70000080000000062
:1000C0000348854600F02AF800480047B9060008B2
:1000D000200400200448804704480047FEE7FEE76C
:1000E000FEE7FEE7FEE7FEE76D050008C100000839
:1000F00030B50B46014600202022012409E00D46C0
:10010000D5409D4205D31D469540491B2546954047
:1001100040191546521E002DF1DC30BD064C01255C
:10012000064E05E02046E36807C82B439847103485
:10013000B442F7D3FFF7C8FFDC070008FC0700084C
:10014000054A00210020401C80B29042FBD3491C8C
:10015000C9B27829F6D3704756F40000034900204D
:10016000401C80B28842FBD37047000056F4000068
:10017000F0B50022012423460D6893401D409D42A6
:100180002AD10D79012D01D0022D12D18768550099
:100190000326AE40B74387604E79AE4085682E4354
:1001A000866085889D43858085888B7993401D4333
:1001B0008580066855000323AB409E4306600E7998
:1001C0000768AE403E430660C6689E43C660CB7972
:1001D000AB40C5682B43C360521C102ACBD3F0BD83
:1001E0004B07DB0E9A40C90810B589000818016A50
:1001F0000F249C40A1430162016A1143016210BDBA
:10020000FEE7704770470000044A0029516901D099
:10021000014300E08143516170470000001002403B
:10022000044A0029D16901D0014300E08143D16132
:100230007047000000100240044A0029916901D073
:10024000014300E0814391617047000000100240CB
:10025000F8B5334D044668680C21324E084003D08F
:10026000042801D0082801D0266012E06968686877
:100270000122890212040F0F1040BF1C00281CD05D
:10028000E86A0107090F491C3046FFF731FF784340
:1002900020606868244B0006000F1A5C2068014645
:1002A000D14061606A685205520F9A5CD140A160EA
:1002B0002A6BD20505D41D4A09E01D484743276033
:1002C000E7E76A68520401D44A0800E08A08E2605D
:1002D0002A6B5306174A03D4164B1233236100E0EE
:1002E00022612B6BDB0601D4666100E060612B6B41
:1002F0009B070FD0296B8907890F01290CD0286B28
:100300008007800F022809D0286BC043800700D1E6
:10031000A661F8BDA161F8BDA061F8BDA261F8BDFC
:100320000010024000127A000A000020809FD500D1
:1003300000093D000080000040220029018801D012
:10034000114300E09143018070470246128900206A
:100350000A4200D00120704770B5012188B088049E
:10036000FFF752FF01214804FFF74EFF01210D0363
:100370002846FFF761FF3820059002266A46567628
:10038000167605A91948FFF7F3FE681005900120BD
:100390006A46107600249476D0760920567605A910
:1003A000C006FFF7E5FE684600F05CF86A46FF20ED
:1003B000148005305080072000029080D480148182
:1003C000E810508110209081D4810720084C1082C1
:1003D0006946204600F00EF82946204600F036F81F
:1003E00001212046FFF7A8FF08B070BD00040048B7
:1003F0000030014030B50388C122920113400A88C1
:10040000CC890D892243CC882C4322434C8922433A
:100410008C8922431A4302808288094B1A408B88B8
:10042000134383800A8A02820288042349889A43FC
:1004300011430180818B034A1140818330BD00004C
:10044000FFF00000FFF70000007B70478288034B3D
:100450001A40828082880A4382807047FFEF000042
:1004600001737047002101800722418012028280BF
:10047000C180018141818181C18107210182704751
:1004800070470000F0B5012106464C0489B02046B3
:10049000FFF7BAFE01212046FFF7C2FE0927FF063B
:1004A000012202213846FFF79BFE01220321384634
:1004B000FFF796FE0C250221684606950177002479
:1004C00084770121C1770321417706A93846FFF7D8
:1004D0004FFE00960194029403940594054C6946DE
:1004E0000495204600F07CF80121204600F06EF8CB
:1004F00009B0F0BD0044004010B50146014800F0CD
:10050000C7F810BD0044004008B500200090144911
:1005100011200860134841684160416841604168AA
:100520003F2212049143416041680522D2041143E5
:1005300041600168012212061143016001688901CE
:10054000FCD5416889088900416041680222114355
:10055000416041680907890F0229FAD108BD0000EE
:1005600000200240001002407047000010B51448FF
:1005700001680122114301604168124A1140416043
:100580000168114A114001600168012292049143FF
:10059000016041683F22120491434160C16A090928
:1005A0000901C162016BFF22543291430163416B27
:1005B00049084900416300218160FFF7A5FF10BD94
:1005C000001002400CB8FFF8FFFFF6FE002901689A
:1005D00002D00122114301E049084900016070473F
:1005E00070B50446006888B00D46400840002060A1
:1005F0006168032000038143A868084360602168A4
:100600002148EA680140686810432A690A43104398
:100610002060A06803210902884369690143A16041
:100620006846FFF715FE1948844201D1069800E09C
:10063000029821680904296801D5490000E0890071
:1006400019225043FFF754FD05466421FFF750FD82
:1006500006013009642148432168281A090407D596
:10066000C00032306421FFF743FD4007400F06E031
:10067000000132306421FFF73BFD0007000F3043DB
:10068000A08108B070BD0000F3E9FFFF0038014011
:10069000C905C90D0185704702E008C8121F08C1CD
:1006A000002AFAD170477047002001E001C1121FF3
:1006B000002AFBD170470000FFF74EFEE120400208
:1006C000FFF7E0FE434C002020814120FFF714FF9C
:1006D000FFF744FD5420FFF70FFFFFF73FFDFFF743
:1006E0002FFD4120FFF708FFFFF738FD5420FFF7EB
:1006F00003FFFFF733FD2B20FFF7FEFEFFF72EFD74
:100700004220FFF7F9FEFFF729FD4120FFF7F4FE35
:10071000FFF724FD5520FFF7EFFEFFF71FFD4420F4
:10072000FFF7EAFEFFF71AFD3420FFF7E5FEFFF7BB
:1007300007FD4B20C001FFF7A5FEFFF70FFD264D7B
:100740004120FFF7D9FEFFF709FD5420FFF7D4FE43
:10075000FFF704FD2B20FFF7CFFEFFF7FFFC56202D
:10076000FFF7CAFEFFF7FAFC4520FFF7C5FEFFF7CB
:10077000F5FC5220FFF7C0FEFFF7F0FC5320FFF717
:10078000BBFEFFF7EBFC4920FFF7B6FEFFF7E6FCE8
:100790004F20FFF7B1FEFFF7E1FC4E20FFF7ACFE64
:1007A000FFF7DCFCFFF7CCFC02212846FFF7CDFD6C
:1007B0000028F9D055212846FFF752FE012128468E
:1007C000FFF7C3FD0028F9D02846FFF73DFE207053
:1007D000B6E700000000002000300140FC070008E0
:1007E000000000201C0000009806000818080008FF
:1007F0001C00002004040000A8060008FF00000000
:1008000000000000000000000000010203040102DB
:080810000304060708090000BB
:04000005080000C12E
:00000001FF
