:020000040800F2
:1000000000040020D50000088701000885010008D1
:1000100000000000000000000000000000000000E0
:1000200000000000000000000000000001030008C4
:1000300000000000000000008901000865030008BE
:10004000E7000008E7000008E7000008E7000008F4
:10005000E7000008E7000008E7000008E7000008E4
:10006000E7000008E7000008E7000008E7000008D4
:10007000E7000008E7000008E7000008E7000008C4
:10008000E7000008E700000800000000E7000008A3
:10009000E7000008E7000008E7000008E7000008A4
:1000A000E7000008E7000008E7000008E700000894
:1000B000E700000800000000E70000080000000062
:1000C0000348854600F014F800480047E90300089B
:1000D000000400200448804704480047FEE7FEE78C
:1000E000FEE7FEE7FEE7FEE769030008C10000083F
:1000F000064C0125064E05E02046E36807C82B4361
:1001000098471034B442F7D3FFF7DEFF0804000825
:1001100018040008F0B50022012423460D6893401E
:100120001D409D422AD10D79012D01D0022D12D101
:10013000876855000326AE40B74387604E79AE40CE
:1001400085682E43866085889D43858085888B7968
:1001500093401D438580066855000323AB409E43B2
:1001600006600E790768AE403E430660C6689E434F
:10017000C660CB79AB40C5682B43C360521C102AC4
:10018000CBD3F0BDFEE7704770470000044A00295A
:10019000516901D0014300E0814351617047000083
:1001A00000100240044A0029916901D0014300E097
:1001B00081439161704700000010024040220029F5
:1001C000018801D0114300E091430180704702464D
:1001D000128900200A4200D00120704770B5012129
:1001E00088B08804FFF7D2FF01214804FFF7CEFF53
:1001F00001210D032846FFF7D5FF38200590022680
:100200006A465676167605A91948FFF783FF6810E7
:10021000059001206A46107600249476D076092055
:10022000567605A9C006FFF775FF684600F05AF834
:100230006A46FF201480053050800720000290801D
:10024000D4801481E810508110209081D48107203F
:10025000084C10826946204600F00EF829462046D8
:1002600000F034F801212046FFF7A8FF08B070BD68
:10027000000400480030014030B50388C1229201DB
:1002800013400A88CC890D892243CC882C43224311
:100290004C8922438C8922431A4302808288094B6D
:1002A0001A408B88134383800A8A028202880423BF
:1002B00049889A4311430180818B034A114081830D
:1002C00030BD0000FFF00000FFF700008288034B04
:1002D0001A40828082880A4382807047FFEF0000C4
:1002E0000173704700210180072241801202828041
:1002F000C180018141818181C181072101827047D3
:100300007047000008B500200090144911200860D3
:100310001348416841604168416041683F221204CE
:100320009143416041680522D20411434160016854
:10033000012212061143016001688901FCD5416860
:100340008908890041604168022211434160416887
:100350000907890F0229FAD108BD000000200240D8
:10036000001002407047000010B5144801680122D7
:10037000114301604168124A114041600168114A0D
:1003800011400160016801229204914301604168BB
:100390003F22120491434160C16A09090901C16207
:1003A000016BFF22543291430163416B49084900BC
:1003B000416300218160FFF7A5FF10BD00100240DE
:1003C0000CB8FFF8FFFFF6FE02E008C8121F08C1D4
:1003D000002AFAD170477047002001E001C1121FC6
:1003E000002AFBD170470000FFF7F8FE054C022100
:1003F0002046FFF7ECFE0028F9D055212046FFF7F4
:100400006FFFF4E7003001401804000800000020EE
:0804100000040000D8030008FD
:04000005080000C12E
:00000001FF
