:020000040800F2
:1000000008040020D5000008330500083105000869
:1000100000000000000000000000000000000000E0
:10002000000000000000000000000000B105000812
:10003000000000000000000035050008150600085B
:10004000E7000008E7000008E7000008E7000008F4
:10005000E7000008E7000008E7000008E7000008E4
:10006000E7000008E7000008E7000008E7000008D4
:10007000E7000008E7000008E7000008E7000008C4
:10008000E7000008E700000800000000E7000008A3
:10009000E7000008E7000008E7000008E7000008A4
:1000A000E7000008E7000008E7000008E700000894
:1000B000E700000800000000E70000080000000062
:1000C0000348854600F014F80048004781080008FE
:1000D000080400200448804704480047FEE7FEE784
:1000E000FEE7FEE7FEE7FEE719060008C10000088C
:1000F000064C0125064E05E02046E36807C82B4361
:1001000098471034B442F7D3FFF7DEFFC408000865
:10011000E408000810B5012000F0F2F801210322E4
:100120008902044800F0E6F800F094F90249002042
:10013000087010BD0024014002000020F0B501212C
:1001400091B0C80400F0F8F90121480200F018FA53
:100150000121022000F0FCF90126032069460696E1
:1001600008770024CC7706A9274800F0A9F9274F83
:10017000384600F08BFA08A800F02EFB0BA800F020
:10018000DFFAFF20099069460C840C854C8408A98D
:10019000384600F0E7FA2021384600F0DBFA1C4D23
:1001A000284600F003F90820009069460E71C0014E
:1001B0000290C020039004940594284600F02EF984
:1001C00003220121284600F095F8284600F0FEF8A9
:1001D0000121284600F064F90121284600F080F84A
:1001E0000121284600F0D8F80A4C2846214600F0A4
:1001F00007F90028F9D00121384600F03DFA2846D9
:1002000000F022F911B0F0BD0008004800040040E1
:10021000002401400100000110B5022000F070F838
:1002200001210322C902044800F064F800F012F929
:1002300002490120087010BD002401400200002086
:1002400010B5042000F05CF80121032209030448E2
:1002500000F050F800F0FEF802490220087010BDCE
:10026000002401400200002010B5082000F048F8EA
:10027000012103224903044800F03CF800F0EAF8A9
:1002800002490320087010BD002401400200002034
:1002900010B5102000F034F801210322890304482E
:1002A00000F028F800F0D6F802490420087010BDCC
:1002B000002401400200002010B5202000F020F8AA
:1002C00001210322C903044800F014F800F0C2F829
:1002D00002490520087010BD0024014002000020E2
:1002E0000122D2030029C16801D0114300E09143EB
:1002F000C1607047836A0B438362426170470000AC
:1003000030B50446012191B0C80400F015F901216F
:10031000480200F035F90121022000F019F9069495
:100320000320694608770024CC7706A9174800F017
:10033000C7F8174D284600F0A9F908A800F04CFAB4
:100340000BA800F0FDF9FF20099069460C840C858C
:100350004C8408A9284600F005FA2021284600F020
:10036000F9F90C4D284600F021F8082000900120F2
:100370006946087180020290C0200390049405949D
:10038000284600F04BF811B030BD000000080048CE
:1003900000040040002401400029816801D00122AE
:1003A00000E002221143816070470000064910B549
:1003B000884208D144150121204600F0EDF80021C3
:1003C000204600F0E9F810BD0024014082680021B9
:1003D0000123DB071A4382600F231B038268491C39
:1003E000D20FD207994201D0002AF7D181680029A3
:1003F00001DB006C704700207047006C80B27047D2
:1004000002460020CB0104D5926801231B069A43C3
:1004100000E012680A4200D00120704730B5C3687E
:10042000084A8C6813400A680D792243CC686D0332
:100430002C4322430C69496922430A431A43C26090
:1004400030BD000003D2FFFF8168042211438160A8
:100450007047000070B50F4C2046FFF7B7FF012131
:10046000204600F01DF801212046FFF739FF012149
:100470002046FFF791FF084D20462946FFF7C0FFB1
:100480000028F9D00121054800F0F6F82046FFF7D2
:10049000DBFF70BD002401400100000100040040AA
:1004A000012292030029C16801D0114300E0914369
:1004B000C16070470020401CC0B2FF28FBD37047CA
:1004C000F0B50022012423460D6893401D409D4253
:1004D0002AD10D79012D01D0022D12D18768550046
:1004E0000326AE40B74387604E79AE4085682E4301
:1004F000866085889D43858085888B7993401D43E0
:100500008580066855000323AB409E4306600E7944
:100510000768AE403E430660C6689E43C660CB791E
:10052000AB40C5682B43C360521C102ACBD3F0BD2F
:10053000FEE7704770470000044A0029516901D066
:10054000014300E081435161704700000010024008
:10055000044A0029D16901D0014300E08143D161FF
:100560007047000000100240044A0029116901D0C0
:10057000014300E081431161704700000010024018
:10058000044A0029916901D0014300E0814391614F
:100590007047000000100240044A0029D16801D0D1
:1005A000014300E08143D160704700000010024029
:1005B0007047000008B50020009014491120086021
:1005C0001348416841604168416041683F2212041C
:1005D0009143416041680522D204114341600168A2
:1005E000012212061143016001688901FCD54168AE
:1005F00089088900416041680222114341604168D5
:100600000907890F0229FAD108BD00000020024025
:10061000001002407047000010B514480168012224
:10062000114301604168124A114041600168114A5A
:100630001140016001680122920491430160416808
:100640003F22120491434160C16A09090901C16254
:10065000016BFF22543291430163416B4908490009
:10066000416300218160FFF7A5FF10BD001002402B
:100670000CB8FFF8FFFFF6FE0029018802D0012226
:10068000114301E04908490001807047254910B530
:10069000884202D10121C41430E001218907884237
:1006A00006D101210846FFF75FFF0021012008E085
:1006B0001D49884208D101210220FFF755FF002182
:1006C0000220FFF751FF10BD1849884206D10121D1
:1006D0001020FFF749FF00211020F2E7144988425B
:1006E00007D1841501212046FFF73EFF0021204657
:1006F000E7E71049884209D101210C042046FFF7A1
:100700004BFF00212046FFF747FF10BD0A498842F2
:1007100002D101214C04F1E708498842F5D10121B9
:100720008C04EBE7002C0140000400400010004066
:1007300000200040004001400044014000480140CA
:10074000002101804180818081608181C18101829D
:1007500041827047828870239A43828082880A434C
:100760008280704710B50288144B984206D001244D
:10077000A407A04202D0124CA04203D17024A2438D
:100780004C8822430F4CA04203D00F4C22400C89CE
:10079000224302804A68C2620A880285984208D0D1
:1007A0000A4A904205D00A4A904202D0094A904231
:1007B00001D1897A01860121818210BD002C01407E
:1007C0000004004000100040FFFC00000040014019
:1007D00000440140004801400021C943416000211C
:1007E0000180018141808172704702E008C8121FB8
:1007F00008C1002AFAD170477047002001E001C10A
:10080000121F002AFBD1704710B502461A481B4C34
:100810000178082A1CD006DC012A0AD0022A0DD051
:10082000042A04D10FE0102A17D0202A1AD0002061
:1008300010BD00291AD0FFF76DFC17E0012915D073
:10084000FFF7EAFC12E0022910D0FFF7F9FC0DE0F7
:1008500003290BD0FFF708FD08E0042906D0FFF7B5
:1008600017FD03E0052901D0FFF726FDFFF722FE63
:100870002046FFF7C2FD10BD020000200024014009
:10088000FFF75CFC0E4CFFF715FE0120FFF7BCFFE5
:1008900020800220FFF7B8FF20800420FFF7B4FF7C
:1008A00020800820FFF7B0FF20801020FFF7ACFF6A
:1008B00020802020FFF7A8FF2080FFF7FBFDE2E764
:1008C00000000020E40800080000002004000000F0
:1008D000EA070008E80800080400002004040000FB
:0808E000FA0700080000FF0008
:04000005080000C12E
:00000001FF
