:020000040800F2
:1000000000040020D5000008D102000811020008F9
:1000100000000000000000000000000000000000E0
:1000200000000000000000000000000005030008C0
:100030000000000000000000D3020008690300086F
:10004000E7000008E7000008E7000008E7000008F4
:10005000E7000008E7000008E7000008E7000008E4
:10006000E7000008E7000008E7000008E7000008D4
:10007000E7000008E7000008E7000008E7000008C4
:10008000E7000008E700000800000000E7000008A3
:10009000E7000008E7000008E7000008E7000008A4
:1000A000E7000008E7000008E7000008E700000894
:1000B000E700000800000000E70000080000000062
:1000C0000348854600F014F800480047ED03000897
:1000D000000400200448804704480047FEE7FEE78C
:1000E000FEE7FEE7FEE7FEE76D030008C10000083B
:1000F000064C0125064E05E02046E36807C82B4361
:1001000098471034B442F7D3FFF7DEFF0804000825
:1001100018040008054A00210020401C80B29042CB
:10012000FBD3491CC9B27829F6D3704756F40000B6
:100130001CB50121880400F0CDF80121480500F02C
:10014000D5F84020009002206946087148710120CE
:100150000A4C8871204600F013F880200090694610
:10016000204600F00DF801220621204600F040F85C
:1001700001220721204600F03BF81CBD0004004886
:10018000F0B50022012423460D6893401D409D4296
:100190002AD10D79012D01D0022D12D18768550089
:1001A0000326AE40B74387604E79AE4085682E4344
:1001B000866085889D43858085888B7993401D4323
:1001C0008580066855000323AB409E4306600E7988
:1001D0000768AE403E430660C6689E43C660CB7962
:1001E000AB40C5682B43C360521C102ACBD3F0BD73
:1001F0004B07DB0E9A40C90810B589000818016A40
:100200000F249C40A1430162016A1143016210BDA9
:10021000FEE70029016802D00122114301E04908EC
:10022000490001607047000010B588B000200190BF
:10023000039002900490059006900648064C0090AA
:1002400001212046FFF7E5FF6946204600F00CF843
:1002500008B010BD070521000054004010B5FFF79D
:1002600067FFFFF7E1FF10BD10B5026852085200AA
:1002700002600268134B8C681A4024024B681443D6
:10028000234303600F230A681B069A430261026836
:1002900001231A43026000228260C2600B698A69EE
:1002A0001A43826082680123DB031A438260CA68B2
:1002B0000368134303604268034B49691A401143C2
:1002C000416010BDFFE0CF00FF7FFF0781627047F4
:1002D00070477047044A0029516901D0014300E08A
:1002E000814351617047000000100240044A002918
:1002F000D16901D0014300E08143D1617047000022
:10030000001002407047000008B50020009014491A
:1003100011200860134841684160416841604168AC
:100320003F2212049143416041680522D2041143E7
:1003300041600168012212061143016001688901D0
:10034000FCD5416889088900416041680222114357
:10035000416041680907890F0229FAD108BD0000F0
:1003600000200240001002407047000010B5144801
:1003700001680122114301604168124A1140416045
:100380000168114A11400160016801229204914301
:10039000016041683F22120491434160C16A09092A
:1003A0000901C162016BFF22543291430163416B29
:1003B00049084900416300218160FFF7A5FF10BD96
:1003C000001002400CB8FFF8FFFFF6FE02E008C87C
:1003D000121F08C1002AFAD170477047002001E0BF
:1003E00001C1121F002AFBD170470000FFF736FF42
:1003F000044CFFF78FFE11212046FFF767FFFFF740
:1004000089FEF6E7005400401804000800000020B0
:0804100000040000DC030008F9
:04000005080000C12E
:00000001FF
