:020000040800F2
:1000000000040020D50000081701000815010008B1
:1000100000000000000000000000000000000000E0
:100020000000000000000000000000001B010008AC
:100030000000000000000000190100087D01000818
:10004000E7000008E7000008E7000008E7000008F4
:10005000E7000008E7000008E7000008E7000008E4
:10006000E7000008E7000008E7000008E7000008D4
:10007000E7000008E7000008E7000008E7000008C4
:10008000E7000008E700000800000000E7000008A3
:10009000E7000008E7000008E7000008E7000008A4
:1000A000E7000008E7000008E7000008E700000894
:1000B000E700000800000000E70000080000000062
:1000C0000348854600F014F800480047FF01000887
:1000D000000400200448804704480047FEE7FEE78C
:1000E000FEE7FEE7FEE7FEE781010008C100000829
:1000F000064C0125064E05E02046E36807C82B4361
:1001000098471034B442F7D3FFF7DEFF000200082F
:1001100010020008FEE770477047704708B50020DE
:1001200000901449112008601348416841604168FB
:10013000416041683F2212049143416041680522B9
:10014000D20411434160016801221206114301608B
:1001500001688901FCD541688908890041604168CE
:1001600002221143416041680907890F0229FAD12F
:1001700008BD00000020024000100240704700004F
:1001800010B5144801680122114301604168124A08
:10019000114041600168114A11400160016801226B
:1001A00092049143016041683F22120491434160EF
:1001B000C16A09090901C162016BFF2254329143EE
:1001C0000163416B49084900416300218160FFF7E9
:1001D000A5FF10BD001002400CB8FFF8FFFFF6FEAF
:1001E00002E008C8121F08C1002AFAD17047704700
:1001F000002001E001C1121F002AFBD17047FEE779
:10020000100200080000002000040000F0010008B7
:04000005080000C12E
:00000001FF
