:020000040800F2
:1000000038040020D50000083B040008390400082B
:1000100000000000000000000000000000000000E0
:10002000000000000000000000000000890400083B
:1000300000000000000000003D040008ED0400087E
:10004000E7000008E7000008E7000008E7000008F4
:10005000E7000008E7000008E7000008E7000008E4
:10006000E7000008E7000008E7000008E7000008D4
:10007000E7000008E7000008E7000008E7000008C4
:10008000E7000008E700000800000000E7000008A3
:10009000E7000008E7000008E7000008E7000008A4
:1000A000E7000008E7000008E7000008E700000894
:1000B000E700000800000000E70000080000000062
:1000C0000348854600F02AF800480047FB0700086F
:1000D000380400200448804704480047FEE7FEE754
:1000E000FEE7FEE7FEE7FEE7F1040008C1000008B6
:1000F00030B50B46014600202022012409E00D46C0
:10010000D5409D4205D31D469540491B2546954047
:1001100040191546521E002DF1DC30BD064C01255C
:10012000064E05E02046E36807C82B439847103485
:10013000B442F7D3FFF7C8FF0C0800082C080008EA
:10014000F8B5074690480C468E490068FFF7D0FF87
:10015000401E8E4D80B22880401E6043FF21FFF775
:10016000C7FFFF26F91F8A4C0136FF396880FA392C
:1001700028D10121480400F07BF9204600270C38E3
:10018000078047802988416007818772014681483E
:1001900000F0EAFA60202080012060800420A08026
:1001A0000220A081E781268267826888A0602146BC
:1001B000784800F0E3F90121764800F0C9F90121FF
:1001C00074488AE0B74228D10121880400F050F930
:1001D0006F4800270C3807804780298841600781D5
:1001E000877201466C4800F0BFFA60202080012031
:1001F00060800420A0800220A081E781268267829F
:100200006888A0606249644800F0B8F9012162483A
:1002100000F09EF9012160485FE00120C0028742A2
:100220002CD10121084600F017F9594800210C385B
:10023000018041802988416000210181817201464D
:10024000F80400F091FA60202080012060800420F2
:10025000A0800220A0810020E08126826082688840
:10026000A0604B49F80400F005FA0121880700F06E
:100270006FF90121880700F075F903E0202F2FD0D6
:10028000102F56D00120C002874228D1012100F052
:10029000EFF83F4800270C380780478029884160E5
:1002A0000781877201463D4800F05EFA6020208099
:1002B000012060800420A0800220A081E7812682A6
:1002C00067826888A0603249344800F0D3F9012180
:1002D000324800F03DF90121304800F043F9F8BD03
:1002E0000121022000F0B8F8294800270C380780C7
:1002F000478029884160078187720146284800F0BD
:1003000033FA60202080012060800420A080022039
:10031000A081E781268267826888A0601C49204806
:1003200000F06AF901211E4800F012F901211C4871
:10033000D3E70121304600F08FF8154800270C382C
:1003400007804780298841600781877201461548E8
:1003500000F00AFA60202080012060800420A08044
:100360000220A081E781268267826888A060084910
:100370000C4800F003F901210A4800F0E9F80121D6
:100380000848AAE7A2440000000000201400002052
:10039000240000200044014000480140002C01409E
:1003A0000004004000200040F0B500220124234654
:1003B0000D6893401D409D422AD10D79012D01D039
:1003C000022D12D1876855000326AE40B7438760DF
:1003D0004E79AE4085682E43866085889D43858032
:1003E00085888B7993401D438580066855000323DB
:1003F000AB409E4306600E790768AE403E43066000
:10040000C6689E43C660CB79AB40C5682B43C360CA
:10041000521C102ACBD3F0BD4B07DB0E9A40C90803
:1004200010B589000818016A0F249C40A14301629D
:10043000016A1143016210BDFEE77047704700007A
:10044000044A0029516901D0014300E08143516110
:100450007047000000100240044A0029D16901D011
:10046000014300E08143D161704700000010024069
:10047000044A0029916901D0014300E08143916160
:1004800070470000001002407047000008B50020CF
:100490000090144911200860134841684160416888
:1004A000416041683F221204914341604168052246
:1004B000D204114341600168012212061143016018
:1004C00001688901FCD5416889088900416041685B
:1004D00002221143416041680907890F0229FAD1BC
:1004E00008BD0000002002400010024070470000DC
:1004F00010B5144801680122114301604168124A95
:10050000114041600168114A1140016001680122F7
:1005100092049143016041683F221204914341607B
:10052000C16A09090901C162016BFF22543291437A
:100530000163416B49084900416300218160FFF775
:10054000A5FF10BD001002400CB8FFF8FFFFF6FE3B
:100550000029018802D00122114301E04908490025
:100560000180704740300029818803D00122D203E6
:10057000114301E04904490C8180704730B5028C79
:10058000520852000284038C8288048B7025AC438D
:10059000A4080D88A40025430224A3438C891C438E
:1005A0004B8823430F4CA04208D00F4CA04205D0EB
:1005B0000E4CA04202D00E4CA0420DD10824A34301
:1005C000CC891C4304239C438B882343094C224041
:1005D0000C8A14434A8A22438280058389684163D6
:1005E000038430BD002C0140004001400044014024
:1005F00000480140FFFC000070B5028C10239A43B4
:100600000284048C8288038B174D2B400D782D06B5
:100610002D0C1D4320239C438B891B051E0C4B88EE
:1006200026431B051B0C114C3343A04215D18024DB
:10063000A343CC892405240C1C4340239C438B8872
:100640001B051B0C23430A4C22400C8AA404240CD7
:1006500014434A8A9204120C2243828005838968DB
:100660008163038470BD0000FF8C0000002C0140FA
:10067000FFF3000030B5028C124B1A400284048C48
:100680008388828B104D2A400D782D062D0C154342
:100690000E4A14400A7B1207120C22438C7824075E
:1006A000240C14430A4A904205D10A4A13400A8A8C
:1006B0009205120C13438380858389680164048446
:1006C00030BD0000FFEF0000FF8C0000FFDF0000E6
:1006D000002C0140FFBF0000FEB501218804FFF798
:1006E000AFFE5920400100900224684604710325A2
:1006F0004571002686710127C77169461948FFF7C1
:1007000053FE012205211748FFF786FE0222082129
:100710001448FFF781FE022209211248FFF77CFEF0
:1007200002220B210F48FFF777FE01214804FFF753
:1007300087FE812000010090684604714571867132
:100740000924C771E40669462046FFF72DFE0422FE
:1007500011462046FFF760FE02220B212046FFF7DC
:100760005BFEFEBD0004004810B50288144B9842A1
:1007700006D00124A407A04202D0124CA04203D10B
:100780007024A2434C8822430F4CA04203D00F4C4C
:1007900022400C89224302804A68C2620A8802858C
:1007A000984208D00A4A904205D00A4A904202D0A4
:1007B000094A904201D1897A01860121818210BDC6
:1007C000002C01400004004000100040FFFC00002D
:1007D00000400140004401400048014002E008C8D8
:1007E000121F08C1002AFAD170477047002001E0AB
:1007F00001C1121F002AFBD17047FFF76DFFFF20D8
:1008000032210130FFF79CFCFEE700002C080008B5
:100810000000002018000000DC0700084408000861
:100820001800002020040000EC070008006CDC0227
:100830000000000000000000010203040607080990
:0408400000000000B4
:04000005080000C12E
:00000001FF
