:020000040800F2
:1000000010040020D50000087304000871040008E3
:1000100000000000000000000000000000000000E0
:10002000000000000000000000000000F1040008D3
:1000300000000000000000007504000855050008DD
:10004000E7000008E7000008E7000008E7000008F4
:10005000E7000008E7000008E7000008E7000008E4
:10006000E7000008E7000008E7000008E7000008D4
:10007000E7000008E7000008E7000008E7000008C4
:10008000E7000008E700000800000000E7000008A3
:10009000E7000008E7000008E7000008E7000008A4
:1000A000E7000008E7000008E7000008E700000894
:1000B000E700000800000000E70000080000000062
:1000C0000348854600F014F800480047C5070008BB
:1000D000100400200448804704480047FEE7FEE77C
:1000E000FEE7FEE7FEE7FEE759050008C10000084D
:1000F000064C0125064E05E02046E36807C82B4361
:1001000098471034B442F7D3FFF7DEFFDC0700084E
:10011000FC07000810B5012000F084F8012103223B
:100120008902044800F078F800F026F9024900201E
:10013000087010BD002401400000002010B502200E
:1001400000F070F801210322C902044800F064F8AD
:1001500000F012F902490120087010BD002401408E
:100160000000002010B5042000F05CF801210322FB
:100170000903044800F050F800F0FEF8024902209C
:10018000087010BD002401400000002010B50820B8
:1001900000F048F8012103224903044800F03CF82C
:1001A00000F0EAF802490320087010BD0024014065
:1001B0000000002010B5102000F034F801210322C7
:1001C0008903044800F028F800F0D6F8024904201A
:1001D000087010BD002401400000002010B5202050
:1001E00000F020F801210322C903044800F014F8AC
:1001F00000F0C2F802490520087010BD002401403B
:10020000000000200122D2030029C16801D011435F
:1002100000E09143C1607047836A0B43836242618F
:100220007047000030B50446012191B0C80400F0C9
:1002300023F90121480200F043F90121022000F0D6
:1002400027F906940320694608770024CC7706A98D
:10025000174800F0D5F8174D284600F0B7F908A860
:1002600000F05AFA0BA800F00BFAFF20099069463B
:100270000C840C854C8408A9284600F013FA202130
:10028000284600F007FA0C4D284600F021F8082017
:10029000009001206946087180020290C0200390FE
:1002A00004940594284600F04BF811B030BD0000CE
:1002B0000008004800040040002401400029816833
:1002C00001D0012200E0022211438160704700004A
:1002D000064910B5884208D144150121204600F096
:1002E000FBF80021204600F0F7F810BD0024014083
:1002F000826800210123DB071A4382600F231B035E
:100300008268491CD20FD207994201D0002AF7D146
:100310008168002901DB006C704700207047006C89
:1003200080B2704702460020CB0104D592680123B9
:100330001B069A4300E012680A4200D00120704771
:1003400030B5C368084A8C6813400A680D792243A7
:10035000CC686D032C4322430C69496922430A434C
:100360001A43C26030BD000003D2FFFF816804223F
:10037000114381607047000070B50F4C2046FFF7B5
:10038000B7FF0121204600F01DF801212046FFF7AC
:1003900039FF01212046FFF791FF084D20462946ED
:1003A000FFF7C0FF0028F9D00121054800F004F94B
:1003B0002046FFF7DBFF70BD002401400100000173
:1003C00000040040012292030029C16801D01143BA
:1003D00000E09143C16070470020401CC0B2FF287C
:1003E000FBD37047054A00210020401C80B2904298
:1003F000FBD3491CC9B27829F6D3704756F40000E4
:10040000F0B50022012423460D6893401D409D4213
:100410002AD10D79012D01D0022D12D18768550006
:100420000326AE40B74387604E79AE4085682E43C1
:10043000866085889D43858085888B7993401D43A0
:100440008580066855000323AB409E4306600E7905
:100450000768AE403E430660C6689E43C660CB79DF
:10046000AB40C5682B43C360521C102ACBD3F0BDF0
:10047000FEE7704770470000044A0029516901D027
:10048000014300E0814351617047000000100240C9
:10049000044A0029D16901D0014300E08143D161C0
:1004A0007047000000100240044A0029116901D081
:1004B000014300E0814311617047000000100240D9
:1004C000044A0029916901D0014300E08143916110
:1004D0007047000000100240044A0029D16801D092
:1004E000014300E08143D1607047000000100240EA
:1004F0007047000008B500200090144911200860E2
:100500001348416841604168416041683F221204DC
:100510009143416041680522D20411434160016862
:10052000012212061143016001688901FCD541686E
:100530008908890041604168022211434160416895
:100540000907890F0229FAD108BD000000200240E6
:10055000001002407047000010B5144801680122E5
:10056000114301604168124A114041600168114A1B
:1005700011400160016801229204914301604168C9
:100580003F22120491434160C16A09090901C16215
:10059000016BFF22543291430163416B49084900CA
:1005A000416300218160FFF7A5FF10BD00100240EC
:1005B0000CB8FFF8FFFFF6FE0029018802D00122E7
:1005C000114301E04908490001807047254910B5F1
:1005D000884202D10121C41430E0012189078842F8
:1005E00006D101210846FFF75FFF0021012008E046
:1005F0001D49884208D101210220FFF755FF002143
:100600000220FFF751FF10BD1849884206D1012191
:100610001020FFF749FF00211020F2E7144988421B
:1006200007D1841501212046FFF73EFF0021204617
:10063000E7E71049884209D101210C042046FFF761
:100640004BFF00212046FFF747FF10BD0A498842B3
:1006500002D101214C04F1E708498842F5D101217A
:100660008C04EBE7002C0140000400400010004027
:10067000002000400040014000440140004801408B
:10068000002101804180818081608181C18101825E
:1006900041827047828870239A43828082880A430D
:1006A0008280704710B50288144B984206D001240E
:1006B000A407A04202D0124CA04203D17024A2434E
:1006C0004C8822430F4CA04203D00F4C22400C898F
:1006D000224302804A68C2620A880285984208D092
:1006E0000A4A904205D00A4A904202D0094A9042F2
:1006F00001D1897A01860121818210BD002C01403F
:100700000004004000100040FFFC000000400140D9
:1007100000440140004801400021C94341600021DC
:100720000180018141808172704702E008C8121F78
:1007300008C1002AFAD170477047002001E001C1CA
:10074000121F002AFBD1704770B51D4C1B4D21783C
:1007500008281CD006DC01280AD002280DD0042865
:1007600004D10FE0102817D020281AD0002070BD27
:1007700000291AD0FFF7CEFC17E0012915D0FFF7AA
:10078000DDFC12E0022910D0FFF7ECFC0DE003299C
:100790000BD0FFF7FBFC08E0042906D0FFF70AFDA9
:1007A00003E0052901D0FFF719FDFFF715FE2846E4
:1007B000FFF7B5FDE080E08870BD00000024014037
:1007C00000000020044C00202081FFF70BFE0120D8
:1007D000FFF7BAFFF8E7000000000020FC07000860
:1007E000000000200C0000002A070008080800088C
:1007F0000C000020040400003A070008FF0000007D
:080800000000000000000000F0
:04000005080000C12E
:00000001FF
